:020000040800F2
:1000000038090020C9000008EF0000086707000851
:1000100000000000000000000000000000000000E0
:10002000000000000000000000000000F3000008D5
:100030000000000000000000F5000008E90A0008C8
:10004000F9000008F9000008F9000008F9000008AC
:10005000F9000008F9000008F9000008F90000089C
:1000600000000000F9000008F9000008F90000088D
:10007000F9000008F9000008F9000008F90000087C
:10008000F90000080000000000000000F90000086E
:1000900000000000F9000008F9000008F90000085D
:1000A00000000000F9000008000000005D0D0008DD
:1000B0000448854600F0BCF900F048F800480047C5
:1000C000152F0008380900200C4880F308880C48D8
:1000D0000168090E0B4A914205D10B480B4901609A
:1000E0000B480C4901600C4880470C480047FEE76C
:1000F000FEE7FEE7FEE7FEE7FEE700003809002026
:10010000040000001F000000181002400100000061
:100110000000014000000000ED0A0008B1000008E6
:1001200030B50B46014600202022012409E00D468F
:10013000D5409D4205D31D469540491B2546954017
:1001400040191546521E002DF1DC30BD70B5054C2E
:10015000054D03E0206800198047241DAC42F9D109
:1001600070BD0000F83E0008FC3E0008F8B50246ED
:100170004A40D40F42004B0052085B089A4202D218
:100180000246084611464A0023D0C30D4A00DDB29C
:10019000120EAD1A202D35DA49020126490AF6055C
:1001A0008A19002C00D0524220214F1B1146B94021
:1001B0002A411018C20D9A4221D0002C17D0012DCF
:1001C00008DCDA05801AD20F8019D207DBB200F002
:1001D000F5F8F8BDDA05801A012340001B06C018A7
:1001E00080185A428018CA0F1043490007E0490896
:1001F000C2071143DA05801A80194008801800F000
:10020000D5F8F8BD61000122511A001BF7E7012261
:10021000D2075140AAE70122D2075040A6E7024682
:1002200070B54A40D30FDB0740002DD04A002AD0DA
:10023000010E140E000212020919400A520A841813
:10024000E50104465443000A120A2E045043A4193F
:100250004219200CC543AA18120C0125AD03521CEB
:10026000521912047F39240400D0521C104301D4C7
:100270004000491EC2B20C06C0092018401C4008AC
:10028000802A02D003E0002070BD40084000002911
:1002900000DA0020184370BD70B502464A40D50F01
:1002A00040004A00ED0740085208002814D0002AF8
:1002B00012D0C40DD30D41020120C0055202490ADB
:1002C000520AE41A091812187D34914201D3641CB1
:1002D00000E04900002C01DA002070BD00239142AB
:1002E00001D3891A0343400849000028F7D10029A7
:1002F0000AD0914202D10121C90705E0914201D201
:10030000012101E00121C943E005C018401900F0B6
:100310004DF870BD420005D04200120E52428A4292
:1003200001DB00207047C90508187047C217C10FCC
:10033000504010B54018CA079623002100F03EF83F
:1003400010BD10B500229623114600F037F810BDFD
:10035000C20F410040020123400ADB05D207090E0B
:10036000C0187F2901DA00207047962903DC962304
:10037000591AC84001E096398840002AF4D040421A
:10038000704700000122D207002800DB101A002964
:1003900000DB511A814270470122D207002800DB9E
:1003A000101A002900DB511A88427047002904DA2C
:1003B000401C490001D140084000704770B400243F
:1003C000050C05D11024000402D1002921D01124EC
:1003D000050E01D100020834050F01D10001241DD2
:1003E000850F01D18000A41C002801DB4000641CA3
:1003F000002908D020252E1B0D46F540A14000D035
:1004000001212943084301061B1B000ADB1D02D5FD
:10041000002070BC7047DB05181880180029F8DA36
:10042000401C4900F5D170BC4008400070470000F6
:10043000064C0125064E05E0E36807CC2B430C3C37
:1004400098471034B442F7D3FFF736FED83E000881
:10045000F83E000870B58C180578401C6B075B0FE0
:1004600001D10378401C2A1106D10278401C03E018
:1004700006780E70401C491C5B1EF9D12B0705D471
:100480000023521E0DD40B70491CFAE70378401C60
:10049000CB1A921C03E01D780D70491C5B1C521E88
:1004A000F9D5A142D8D3002070BD836A0B43836283
:1004B000426170470029816801D0012200E00222D8
:1004C0001143816070470029C16802D001221143A5
:1004D00001E049084900C1607047C26802239A439D
:1004E000C260C2680A43C26070478268002101236B
:1004F000DB071A4382600F231B038268491CD20F5B
:10050000D207994201D0002AF7D18168002901DB86
:10051000006C70470020704730B5C268084B8C688B
:100520001A400B680D792343CC686D032C43234399
:100530000C69496923430B431343C36030BD00007A
:1005400003D2FFFF816804221143816070470021BC
:10055000016001718160C16001614161704700000B
:100560000122054992050028886801D0104300E067
:10057000904388607047000000270140002901680F
:1005800002D00122114301E0014A1140016070478D
:10059000FEFF000030B503680C4A0C6A13408A68FD
:1005A0004D6922430C692C4322438C692243CC6958
:1005B00022434C6A22438C6A22431A430260CA686F
:1005C00042600A6882604968C16030BD0F80FFFFE9
:1005D000F0B50B2706463F04384600F067F80428BC
:1005E0000FD1084C206902252843206166612069EB
:1005F000402108432061384600F058F82169A9439A
:100600002161F0BD0020024008490420CA68D207D9
:1006100001D001207047CA68D20601D50220704778
:10062000C9684907FBD5032070470000002002403D
:100630000248016980221143016170470020024095
:10064000F8B5064600200B273F0400900D463846BB
:1006500000F02CF8042815D10B4C20690121084327
:1006600020613580384600F021F8042806D1B61CF8
:10067000290C00963180384600F018F821694908A5
:1006800049002161F8BD00000020024004480169D2
:10069000090603D5034941600349416070470000E2
:1006A0000020024023016745AB89EFCD00B503462A
:1006B000FFF7AAFF02E0FFF7A7FF5B1E012803D0A8
:1006C000002B00D1052000BD002BF4D1FAE7F0B5D6
:1006D0000022032501230C6893401C409C422AD130
:1006E0000C79012C01D0022C12D1876854002E46BF
:1006F000A640B74387604E79A6408468264386604B
:1007000084889C43848084888B7993401C438480B4
:10071000066853002C469C40A64306600E79076885
:100720009E403E430660C668A643C660CC799C40A6
:10073000C3681C43C460521C102ACBD3F0BD4B07C6
:10074000DB0E9A40C90810B589000818016A0F2409
:100750009C40A1430162016A1143016210BD018501
:10076000704781617047052001F0D2FC00290168C3
:1007700002D00122114301E049084900016070479D
:10078000012292030029416801D0114300E0914306
:10079000416070470246926900200A4200D0012061
:1007A0007047000010B502685208520002600268EB
:1007B000134B8C681A4024024B6814432343036094
:1007C0000F230A681B069A430261026801231A4339
:1007D000026000228260C2600B698A691A438260EB
:1007E00082680123DB031A438260CA6803681343EB
:1007F00003604268034B49691A401143416010BDD0
:10080000FFE0CF00FF7FFF07406AC0B27047816200
:100810007047000070B5049D44688905890D120475
:10082000034E11431943344029432143416070BDB5
:10083000009800FC30B5827801240178002A15D098
:100840008B080E4A9B009A1813688907C90EFF256A
:100850008D40AB434578AD072D0E8D401D4315608F
:100860000078C006C00E8440054804E0C806C00EEB
:10087000844003488030046030BD000000E400E0A4
:1008800000E100E070B5FF2500210446AD05C94335
:10089000FFF740FD06460F4960100C1A214630460E
:1008A000FFF7BDFC2146FFF7BAFC2946FFF7B3FC72
:1008B0002146FFF7B4FC044601463046FFF7AFFC83
:1008C0002146FFF7ACFC2946FFF7A5FC2146FFF7C0
:1008D000A6FC70BDDF59375F044A0029516901D079
:1008E000014300E081435161704700000010024065
:1008F000044A0029D16901D0014300E08143D1615C
:100900007047000000100240044A0029916901D09C
:10091000014300E0814391617047000000100240F4
:10092000F8B5464E0446716800200C22444D114033
:1009300005D0042903D0082903D00C2918D025603C
:1009400018E07168706803228902D2030F0F10400B
:10095000BF1C002809D0F06A0107090F2846491C6E
:10096000FFF7DEFB7843206004E036487843FAE77F
:10097000354921607168354F0906090F7B5C216894
:100980000A46DA40626073685B055B0FFB5CDA4025
:10099000A260336BDB0501D42D4B05E073685B046B
:1009A00001D4530800E09308E360336B5F06294BE2
:1009B00003D4284F1237276100E02361376BFF060D
:1009C00001D4656100E06161376BBF070ED0376B02
:1009D000BF07BF0F012F0BD0376BBF07BF0F022F11
:1009E00008D0376BFF43BF0706D006E0A26104E0E2
:1009F000A16102E0A36100E0A561376BBF03BF0FF7
:100A00000FD0326B9203920F012A0CD0316B890305
:100A1000890F022909D0316B8903890F032906D078
:100A200006E0E26104E0E16102E0E36100E0E5612B
:100A3000316B090600D404482062F8BD0010024062
:100A400000127A0000093D00006CDC02CD0100209C
:100A5000809FD5000080000004490A6B10239A4350
:100A60000A630A6B02430A637047000000100240E9
:100A7000044A0029116801D0014300E0814311605C
:100A800070470000000001400CB50020009001906C
:100A90001349112008601348416841604168416072
:100AA00041687B22D2039143416041680522D20410
:100AB000114341600168012212061143016001687F
:100AC0008901FCD54168890889004160416802229A
:100AD0001143416041680907890F0229FAD10CBD11
:100AE00000200240001002407047000010B514487A
:100AF00001680122114301604168124A11404160BE
:100B00000168114A11400160016801229204914379
:100B1000016041683F22120491434160C16A0909A2
:100B20000901C162016BFF22543291430163416BA1
:100B300049084900416300218160FFF7A5FF10BD0E
:100B4000001002400CB8FF08FFFFF6FE00290188E4
:100B500002D00122114301E0490849000180704799
:100B600040300029818803D00122D203114301E0E3
:100B70004904490C8180704770B5028C52085200BC
:100B80000284048C8288038B7025AB439B080D88FC
:100B90009B001D4302239C438E894B882643104CA7
:100BA0003343A04208D00F4CA04205D00E4CA042C7
:100BB00002D00E4CA0420DD10824A343CC891C4383
:100BC00004239C438B882343094C22400C8A144302
:100BD0004A8A22438280058389684163038470BD09
:100BE000002C014000400140004401400048014009
:100BF000FFFC000070B5028C10239A430284048C21
:100C00008288038B1A4D2B400D782D062D0C1D4329
:100C100020239C438B891B051E0C4B8826431B05F8
:100C20001B0C144C3343A04202D0134EB04219D1D6
:100C3000124E32400E8AB604360C3243A04211D115
:100C40008024A343CC892405240C1C4340239C43CB
:100C50008B881B051B0C2343094C22404C8AA4049F
:100C6000240C22438280058389688163038470BDDC
:100C7000FF8C0000002C014000400140FFFB000001
:100C8000FFF7000030B5028C124B1A400284058C2D
:100C90008288838B104C23400C782406240C1C4340
:100CA0000E4B1D400B7B1B071B0C2B438D782D0718
:100CB0002D0C1D430A4B984205D10A4B13400A8A5A
:100CC0009205120C1A43828084838968016405842A
:100CD00030BD0000FFEF0000FF8C0000FFDF0000D0
:100CE000002C0140FFBF000010B50288144B984251
:100CF00006D00124A407A04202D0124CA04203D186
:100D00007024A2434C8822430F4CA04203D00F4CC6
:100D100022400C89224302804A68C2620A88028506
:100D2000984208D00A4A904205D00A4A904202D01E
:100D3000094A904201D1897A01860121818210BD40
:100D4000002C01400004004000100040FFFC0000A7
:100D5000004001400044014000480140F8B51C48F3
:100D6000426980691B4CE169884201D20D1A01E099
:100D7000121A5518E0610821174800F03FF80026C4
:100D8000002804D00821144800F02CF826701348DD
:100D9000134F854201D9267002E02078032801D242
:100DA000052001E07878801CC5B22078A8420AD2DC
:100DB000094800F08DF821787854491CC8B2207099
:100DC000A84201D26661F8BD012060612670F8BDBD
:100DD00000E000E07C000020003801404C040000EE
:100DE00064030020016270470029016802D00122DB
:100DF000114301E049084900016070470246D26989
:100E000000200A4200D00120704710B50B041C0ED0
:100E100001238B40022C02D0032C02D002E0001DE3
:100E200000E008300168002A01D0194300E099432E
:100E3000016010BD30B50446006889B00D46400819
:100E4000400020606068032109038843A9680143CA
:100E5000616020681A49EA680840696811432A6994
:100E6000024311432160A068032109028843696994
:100E70000143A1606846FFF753FD1248844201D147
:100E8000069805E01048844201D1079800E00298D6
:100E900021680904296800D54000FFF741F92A6854
:100EA00052088A4200D8401C2168090404D5010771
:100EB000064A490F10400843A08109B030BD000028
:100EC000F3E9FFFF0038014000440040F0FF00005C
:100ED000808CC005C00D704770B50D480B49006887
:100EE0000546FFF79CF90B49FFF740F904460A490C
:100EF0002846FFF794F92146FFF7CEF97F21C9056F
:100F0000FFF789F90549486070BD000000004040C6
:100F10003C000020CDCC4C3D0000C040E000002053
:100F200070B50D480B4900680546FFF778F90B4985
:100F3000FFF71CF904460A492846FFF770F92146D5
:100F4000FFF7AAF97F21C905FFF765F90549086090
:100F500070BD0000000040403C000020CDCC4C3D66
:100F60000000C040E0000020002101607047002127
:100F700001607047002101607047FFB581B01C46D9
:100F800017460E0007D0019D02E02846B047ED1934
:100F90002046641EF9D2019805B0F0BD02E008C8F1
:100FA000121F08C1002AFAD170477047002001E0E3
:100FB00001C1121F002AFBD17047000010B50323A6
:100FC00004220B490B48FFF7D8FF0A4803230422E9
:100FD00009490C30FFF7D1FF08480021016005489E
:100FE0000323082206491830FFF7C7FF10BD000091
:100FF000690F0008EC0300206F0F0008E8000020D4
:10100000750F0008F8B5154E452000063746002537
:10101000183FB06002F07EFD0024A000395880190E
:101020000F4A01F0EBFE641C032CF6DB01F04EFBD3
:10103000FF20F5306D1C8542ECDB45210906B068C8
:10104000FFF7E5F8074D0024B060A000801929469D
:1010500001F0B0FE641C032CF7DBF8BDBC030020DC
:101060001F856B3F0000FA4370B592B02025032026
:101070006946069508770024CC77092006A9C006A2
:10108000FFF725FB01214802FFF73EFC012108463E
:10109000FFF722FC29480690294807900220099072
:1010A00080200B9040000C90089480000E950D90CD
:1010B0000A94C000234D0F9006A910942846FFF70C
:1010C00069FA1E4E0221403E3046FFF706FA012122
:1010D0003046FFF7F8F96846FFF739FA012069460C
:1010E0000094087104200590029404943046FFF7A0
:1010F00013FA0121072249043046FFF7D6F90722E7
:1011000020213046FFF7D1F90120FFF729FA3046B8
:10111000FFF7EBF901213046FFF7CCF93046FFF736
:1011200011FA01212846FFF729FA07480088FFF73E
:1011300008F90349486012B070BD00004024014026
:10114000B401002008000240BAF7FF1F10B50B4998
:10115000002803D0012808D0002010BD0888FFF720
:10116000F0F80749FFF75BF810BD4888FFF7E9F88A
:10117000014602484068FFF78FF810BDB401002017
:1011800067661E3BF0B58400304887B005597F2163
:1011900068004008C9050290FFF73DF80646294659
:1011A000FFF73DF82949303909680191FFF737F811
:1011B000059029460298FFF732F82449203909683A
:1011C0000091FFF72CF807462048083001592846BF
:1011D000FFF71DF81D49049028390968FFF71FF82B
:1011E0003146FFF71CF81A4909680391FFF717F811
:1011F0000599FEF7BBFF1549064610390851083915
:1012000004980968FFF70BF80299FFF708F80399AB
:10121000FFF705F83946FEF7A9FF0C4908390851D0
:1012200001463046FEF7A2FF084E103630513046D8
:101230000838055100990198FEF798FF0146A0195A
:1012400001F0B8FD305907B0F0BD000020010020CA
:1012500050010020F0B56548654900780968654D82
:10126000654E664F87B008437ED00021644802F087
:10127000EBFCA868634C039060680399FEF7CFFF0E
:10128000009001212068C90748400399FEF7C7FF75
:101290000190A0680399FEF7C2FF02905A4805909A
:1012A0005A4804905A4806905048C07B002803D002
:1012B0004F48006800281AD000255648AC00015954
:1012C000554801512846FFF75DFF69460959FEF769
:1012D0004DFF3159FEF79BFF6D1C3851012DECDDA0
:1012E000B1680298FEF793FFB86007B0F0BD4B49B4
:1012F00003C9440049004908640820460391FFF7E8
:101300004BF800D9039C04992046FFF73BF804D81A
:1013100020460499FEF7C0FF01E07F20C00504903D
:10132000374806990068440064082046FFF72AF809
:1013300005D820460699FEF7AFFF044601E07F245A
:10134000E40504990598FEF76AFF039034482146A6
:10135000FEF765FF0399FEF709FF039029488168AE
:101360000120C007814200E02DE004D931682868DF
:10137000FEF74DFF20E027480168274801603168EB
:101380002868FEF744FF0399FEF749FF04467F20D3
:10139000C0050399FEF73BFF03900020FFF7F2FE24
:1013A0000099FEF7E3FE3168FEF731FF0399FEF77F
:1013B00036FF2146FEF7DAFE386071686868FEF78E
:1013C00026FF78608CE7174C2868206068686060AA
:1013D000A8680025A0600848AE008159A059FEF712
:1013E00016FF6D1CB851032DF5DB7EE7F0010020E0
:1013F0000400002018030020B00300200005002096
:10140000F4020020D40000209A99993E00005C422A
:101410003333733FD403002020010020E003002079
:101420003333333FDC040020F8B5114D7F26F60539
:1014300031462868FEF79AFE0027FF433946FEF73B
:1014400069FF0C4C314620606868FEF78FFE394614
:10145000FEF760FF60603146A868FEF787FE3946F8
:10146000FEF758FFA06004480068E060F8BD000087
:10147000E8020020E0010020AC010020F8B5174888
:1014800000210068C943FEF745FF3F210906FEF72A
:101490006DFE134D2968FEF769FE124C124E7F2730
:1014A0002060FF0539467068FEF760FE0021C943E1
:1014B000FEF730FF6968FEF759FE60603946B06894
:1014C000FEF754FE0021C943FEF724FFA968FEF78A
:1014D0004DFEA06005480068E060F8BD0C030020E8
:1014E000D0040020E0010020E8020020AC01002030
:1014F000F8B5174F0021C9433868FEF70BFF3F26A8
:1015000036063146FEF732FE124D2968FEF72EFEF2
:10151000114C00212060C9437868FEF7FBFE31467C
:10152000FEF724FE6968FEF721FE60600B487F210C
:101530008068C905FEF71AFE0021C943FEF7EAFEDE
:10154000A968FEF713FEA06005480068E060F8BDDA
:101550000C030020D0040020E0010020E80200205D
:10156000AC010020F8B57F20C00500903E48807B8C
:10157000002802D13F20000600903C4E00253B4849
:10158000AC000C3001593A4807593846FEF73FFE87
:1015900030513648243801593846FEF7F3FE04D15D
:1015A000324818380159491C02E0304800211838E7
:1015B00001512F4F2D493859243908510C310A59FE
:1015C0002C498A4215D941007D224908D205914211
:1015D0000FDA26490C310851284601F069F87F21BD
:1015E000C905FEF718FE3959FEF719FE1F491831D3
:1015F0000851284601F05CF841001F484908814223
:1016000008DD284601F054F802463059009900F0F0
:1016100009FA30511548183001593059FEF7A6FD26
:1016200012496D1C0C390851032DA8DB134D30688D
:101630002946FEF7F4FD124F3946FEF7F0FD0B4C3C
:101640002946243420607068FEF7E9FD3946FEF72C
:10165000E6FD60602946B068FEF7E1FD3946FEF719
:10166000DEFDA060F8BD0000F0010020F4020020C3
:10167000C0020020EE0200000AD7233C0000B44361
:1016800035FA8E3CF8B5264826498379264A00204B
:10169000264F274D002B0FD0264B0126DC68264B0A
:1016A0009C4202DD1368002B0FD0244B1B68012BDA
:1016B0000BD00E6016600BE0086021490968012913
:1016C00001D11E490860786018E01E4B08601E605A
:1016D0007E600968002911D0310013D01A492046D4
:1016E000FEF79DFD1949FEF741FD3860124884421E
:1016F00003DD2868002800D12E60F8BD386028601E
:101700001060F8BD12498C4202DA38602860F8BDDA
:101710002046FEF77CFD0F49FEF781FD3860EBE7C0
:10172000F00100205000002054000020AC010020F7
:101730004C000020C0020020CDCCCC3D4400002055
:10174000880000202400002077BE7F3F6F12833A7C
:10175000CDCC4C3D9932873FFEB5654D0026F64312
:10176000644C31462868FEF7D5FD3F210906FEF797
:10177000FDFC2168FEF706FE16D231462868FEF70A
:10178000C9FD7F21C9050090FEF7F0FC07463F2107
:1017900009060098FEF7EAFC014600970B463A4618
:1017A000206801F0C1FD206031462868FEF7B2FDD7
:1017B0003F273F063946FEF7D9FC2168FEF7ECFDCE
:1017C00011D231462868FEF7A5FD009039460190F8
:1017D000FEF7CCFC0346009A019800901946206859
:1017E00001F0A2FD206031466868FEF793FD3F21BD
:1017F0000906FEF7BBFC6168FEF7C4FD16D2314650
:101800006868FEF787FD7F21C9050090FEF7AEFCF2
:1018100007463F2109060098FEF7A8FC01460097FD
:101820000B463A46606801F07FFD606037463146FE
:101830006868FEF76FFD3F2636063146FEF796FCD8
:101840006168FEF7A9FD11D239466868FEF762FDAE
:10185000009031460190FEF789FC0346009A0198FA
:1018600000901946606801F05FFD60600021C94387
:10187000A868FEF74FFD3146FEF778FCA168FEF739
:1018800081FD16D20021C943A868FEF743FD7F21E0
:10189000C9050090FEF76AFC074631460098FEF73E
:1018A00065FC014600970B463A46A06801F03CFDF6
:1018B000A0600027FF433946A868FEF72BFD31469C
:1018C000FEF754FCA168FEF767FD0FD23946A86801
:1018D000FEF720FD05463146FEF748FC034600951D
:1018E0002A461946A06801F01FFDA060FEBD000059
:1018F0000C030020E0010020F8B5164D7F27FF05FE
:1019000039462868FEF732FC0021C943FEF702FD84
:10191000114E3168FEF72AFC104C39462060686889
:10192000FEF724FC0021C943FEF7F4FC7168FEF7C2
:101930001DFC60603946A868FEF718FC0021C94309
:10194000FEF7E8FCB168FEF711FCA06004480068EF
:10195000E060F8BDE8020020D0040020E001002093
:10196000AC0100207047000070B5244800240068D6
:10197000012842D12248244D01682248814205DADB
:10198000FEF745FC2946FEF74AFC04461F4801685D
:101990001F48814205DAFEF73AFC2946FEF73FFC74
:1019A00004461C4D7F20C0052E68844201DD04469C
:1019B00001E0002C07DD18492046FEF730FC3146D7
:1019C000FEF7D4FB03E015493046FEF720FC3F212B
:1019D00009062860884201DD296005E00121C90768
:1019E000884201D90020286020462968FEF7BEFB06
:1019F0000B4C2168FEF70FFC206070BD48000020F2
:101A00000C000020CDCC2C400000404010000020F5
:101A100033335340A801002017B7D1386F12833AEF
:101A2000AC010020F7B57F250746ED0516461146A7
:101A30002846FEF7ECFB04461649FEF7F0FB01468C
:101A40002A4601A801F0C9F920463946FEF7E7FB0E
:101A5000054620460199FEF7DEFB3146FEF71CFCE9
:101A6000044639460846FEF7DAFB3946FEF7D7FB4F
:101A70003946FEF7D4FB3946FEF7D1FB3146FEF777
:101A8000CEFB2146FEF7CBFB01462846FEF76EFB58
:101A9000FEBD00003333333FF8B505460C46480021
:101AA00000D1294C01210026C9078D4203D94C40A1
:101AB0004D408126F605002C09DC204648402C4686
:101AC0000546012189073046FEF750FB06462146B0
:101AD0002846FEF761FC10D821462846FEF797FB02
:101AE000074621462846FEF741FB04467F213D4636
:101AF000C9053046FEF73AFB064621462846FEF762
:101B0000CBFB04461149FEF78AFB1149FEF72EFB79
:101B10002146FEF784FB0F49FEF728FB2146FEF71E
:101B20007EFB04460C493046FEF779FB2146FEF762
:101B30001DFB0A49884202DD0949FEF768FB094995
:101B4000FEF76DFBF8BD0000567C0A2A4BC887BD26
:101B50007EAE36BE42DA833FDB0F493FDB0F4940A2
:101B6000DB0FC940E12E654270B5002506462C46C4
:101B7000A00030580146FEF752FB2946FEF7F6FA60
:101B8000641CE4B20546032CF2D3FEF77BFE01464B
:101B90007F20C005FEF780FB70BD0000F8B51D4D2D
:101BA0000C216E68074632464A431B4918485318B1
:101BB0002A6894001959002F02D0491C195102E0DB
:101BC000491E16481951002E06D1002A01D0012ABB
:101BD00002D10F49FEF723FB0021C943FEF79AFB10
:101BE000AE683159FEF7C2FA002800DD305129688D
:101BF000002902D1002800DD706068680C22504383
:101C0000054A890080184058002800DA4042F8BD93
:101C1000CDCCCC3D3801002058040020CDCCCCBD2B
:101C200030B5002207239C1A6418203C855CE47FB1
:101C3000A54201D0002030BD521C072AF3DB012051
:101C400030BD0000F8B54C4FB869002804DA012413
:101C50007C6000F001FABC60B869002801D1012065
:101C60007860386A786200F065F9796A386A884283
:101C700002D000F02BFDB86200F028FDB96A002602
:101C8000401A3E49884201D9BE61F8BDB8690128B1
:101C9000FBD138693A490090401E884200D2BE60AC
:101CA000384C2068FEF74DFB3749FEF7B0FA37494C
:101CB000FEF7B5FA364D28606068FEF742FB324900
:101CC000FEF7A5FA3149FEF7AAFA6860E068FEF768
:101CD00038FB2D49FEF79BFA2C49FEF7A0FAA860C5
:101CE000A068FEF72EFB2B49FEF791FA2A49FEF772
:101CF00096FA7F21C905E860884201DDE96004E0C9
:101D00000121C907884200D9EE601D4A2069C93205
:101D1000904201D9012000E00020204988716069CB
:101D2000904201D9012000E000200870A069904293
:101D300001D9012000E000200872E069904201D939
:101D4000012000E00020C871206A904201D90120E2
:101D500000E000208870606A904201D9012000E014
:101D60000020C870009864288FDD0120F8607E6034
:101D7000B86065203861F8BD7C00002040420F004B
:101D8000830300002403002000A077444EC4A43A3B
:101D9000C002002000003F434EC4243AF00100205E
:101DA000F8B51D4F1D4E0025AC0000213859C94320
:101DB000FEF7B0FA3159FEF7EFFA05D20021385993
:101DC000C943FEF7A7FA305100213859C943FEF73D
:101DD000A1FA7F21C905FEF7C9F93159FEF7D2FAF8
:101DE00009D200213859C943FEF794FA7F21C90569
:101DF000FEF7BCF930516D1C032DD5DB0121F068D5
:101E0000C907884202D90020F060F8BD7F21C905CA
:101E10008842FADDF160F8BD0C030020E0010020EB
:101E200000B501F001FE00BDF8B5FFF79BFB01F026
:101E30002FFDFFF70FFA002001F0C6FA012001F094
:101E4000C3FA022001F0C0FAFFF71CFC214800246D
:101E50000068214E214D002811D12149096800292F
:101E60000DD02C606C60FFF77FFD1E480178C07BB1
:101E7000002916D000280DD0FFF700FB18E0012143
:101E80003460AC602960002807D01748006800283B
:101E900003D06960FFF72CFB0AE0FFF7C5FA6C601E
:101EA00006E0002802D0FFF7BFFA01E0FFF724FDAB
:101EB00001F057FA0D4F0024A000385801F0A4FD9E
:101EC0000146E0B201F06EFD641C032CF4DD3068C5
:101ED000A860F8BD80000020AC01002000000020B8
:101EE00050000020F00100204C000020E001002004
:101EF00048400021D522030602D54000504000E0B2
:101F00004000491CC0B20829F5DB704730B5084DC8
:101F10000020A978FFF7ECFF002404E02919C97814
:101F2000FFF7E6FF641C6978891EA142F6DC30BD2C
:101F300064030020F0B5464D0126686900287DD075
:101F40000027444C6F61A07816287DD1FFF7DEFF93
:101F5000617E814278D12079E17800020843410511
:101F60002046490D40380160A288211D9204520D7F
:101F70004260A279637912021A43E3791B041A437F
:101F8000D203520D8260227AE37912021A431205BB
:101F9000520DC2608A885204520D0261A27A637A9D
:101FA00012021A43E37A1B041A439203520D426150
:101FB000227BE37A12021A43D204520D82610A890B
:101FC0005209C261A21D1346E77BA27B3F02174361
:101FD0007A05520D0262227CE77B12023A43920498
:101FE000520D4262A77C8A893F043A43D203520DC4
:101FF00082625A7B1F7B12023A431205520DC26263
:10200000227DE77C12023A435204520D0263A27D04
:10201000098A120411438903490D4163597C1A7CD2
:1020200009021143C904490D8163217EE27D090241
:1020300011434909C1630020AE6101E005E003E0FE
:1020400028622869401C2861F0BD2E62F0BD0000A6
:102050007C0000206403002070B58AB000F036FBDD
:102060001E49884238D302206946087101258D71C6
:10207000CD710320487108200924E4060090204611
:10208000FEF725FB012203212046FEF758FB012124
:102090008803FEF739FC00241148089403900C20B3
:1020A000104E079004940594069403A93046FEF759
:1020B000C1FE01220C493046FEF7A7FE0121304641
:1020C000FEF792FE1B20694608724C728D7202A8C0
:1020D000FEF7B0FB054884610AB070BD80841E0025
:1020E000A068060000380140050105007C000020C2
:1020F00010B50020FFF752FD10BD08B5C100081A49
:102100000090411E009101D30846FAE708BD000087
:1021100006460024E0B2002101F044FC641C032CBC
:10212000F8DD0B4DAF0000240CE0FF2000F038FE7E
:102130002846FFF7E2FFFF2000F028FE2846FFF7C1
:10214000DCFF641CB442F0DB3846FFF7D6FFEAE759
:10215000400D030010B50349FEF708F800F004F83D
:1021600010BD0000DB0FC93F70B50446134E144D7F
:1021700003E03146FDF7FAFF0446AC42F9D8114DB1
:10218000AC4204DD3146FEF742F80446F8E7012090
:10219000C0070D490D4D8442204605D9FEF73FF892
:1021A0002946FDF7E3FF04E0FEF739F82946FEF77C
:1021B00032F82146FEF733F870BD0000DB0FC9404E
:1021C000DB0F49C0DB0F49407B81CF3E83F9A23F43
:1021D000FEB500273D460024681CFEF7A7F80190D5
:1021E0000E49A8000E58601CFEF7A0F80090A10050
:1021F00071580198FEF713F80099FEF710F8084996
:10220000FEF70DF83946FDF7B1FF641C0746032CB5
:10221000E9DB6D1C032DDEDBFEBD00009C01002010
:102220008D976E3F10B5FFF7D3FF0149086010BDD1
:1022300058000020F8B50020012400F0A5F81E4D3C
:10224000A84237D1FF2000F09FF8A84232D12046A3
:10225000022500F0A1F8194948600968FEF792F8D4
:1022600011D100260024B70028466D1C00F094F818
:102270001349A200C959641C8850032CF4DB761C56
:10228000032EEFDB00E00B2528466D1C00F084F8E0
:102290000C4C206028466D1C00F07EF860602846DB
:1022A00000F07AF8A060362000F076F8FEF750F8DB
:1022B00005490860F8BD00000100AA12580000207E
:1022C0009C010020BC03002048000020F8B500F06D
:1022D00067F800F047F8002001241D4901F0B8FD1F
:1022E0001C4920460225096800F05EF800260024FB
:1022F000B7001948A100C059415828466D1C00F08C
:1023000053F8641C032CF4DB761C032EEFDB134C18
:1023100028466D1C216800F047F86E1C284661684D
:1023200000F042F83046A16800F03EF80C48006822
:10233000002802D07F21C90500E00021362000F0EE
:1023400033F80349FF2001F083FD00F019F8F8BDD0
:102350000100AA12580000209C010020BC030020AC
:102360004800002010B50548FEF732F9042803D0D4
:10237000FEF75EF9012010BD002010BD007C0008B2
:1023800010B5FEF755F910BD0249800040180068ED
:1023900070470000007C000800B5FFF7F5FF00BDA6
:1023A00010B5FEF773F910BD10B501F051FD10BD69
:1023B00030B53F4C2178814277D006216218203A0F
:1023C000D27F6254491E0129F8DA20703949384811
:1023D000FFF726FC7F25002802D06570032030BD62
:1023E00034493348C91DFFF71BFC002802D0657033
:1023F000042030BD2F492E480E31FFF711FC002874
:1024000002D06570012030BD2A4929481531FFF7F7
:1024100007FC002802D06570022030BD2549244801
:10242000C91FFFF7FDFB002802D06570092030BDF1
:1024300020491F480E39FFF7F3FB002802D06570D2
:102440000A2030BD1B491A481539FFF7E9FB00285F
:1024500002D065700B2030BD164915481C31FFF7BE
:10246000DFFB002802D06570052030BD11491048FF
:102470002331FFF7D5FB002802D06570062030BD60
:102480000C490B482A31FFF7CBFB002802D06570BE
:10249000072030BD074906483131FFF7C1FB00284E
:1024A00003D06570082030BDFFE70020FBE7000087
:1024B00074000020853E0008F8B500F077F80400AD
:1024C0005FD00125324F012C1ED1386800282FD053
:1024D0003048056000203860FFF7F8FEFFF7AAFEDD
:1024E000002002460C26034673432B4E00219B1905
:1024F0008E00491C9A510329FADB401C0328F1DBAA
:1025000000F0E4F825490860254E0A2C15D025492D
:10251000042C1FD0032C21D0072C00DB3D60052CA0
:1025200021D0062C22D0072C2CD0082C2DD020E036
:1025300000F0E6F8FEF766FDCEE71B4908680028C4
:1025400006D0002008600221081A30603D60E5E7EF
:102550000120F7E70F480D7105600AE00D4805609E
:102560000020087105E000F013FF01E000F002FF19
:1025700030603868002804D03068002801D1054850
:102580000560F8BD00F09CFBF2E7FFF7B1FDEFE757
:10259000600000202400002058040020400000209B
:1025A00028000020F00100204800002070B53848C5
:1025B000384C0068002865D0374B7D201A68C0056C
:1025C0005100490881420BDA9D686D006D08854213
:1025D00006DA5D686D006D08854201DA00202FE0A3
:1025E0002E4DAA4202D89E68AE4206D95E68760099
:1025F0007608864201DA012022E0294EB24202DC4E
:102600009A68B24206DD5A6852005208824201DAE4
:10261000022015E05A68AA4208D9814206DA9D686C
:102620006D006D08854201DA032009E0B24208DD41
:10263000814206DA996849004908814201DA04209A
:10264000206000F043F806CC083C914200D0E060E6
:10265000E268801A134A90420FD9002904D1124A25
:10266000904201D90C2005E0104A904204D97F29FC
:1026700003D0FF20A06000E0A1606160A068FFF7C8
:1026800097FE70BD7F20A0606060002070BD0000DC
:102690000000002064000020C0020020333333BF5C
:1026A0003333333FA086010060AE0A0020A107004B
:1026B0000549002805D0012803D0022801D00020B8
:1026C00070470846704700006666263F00B501F077
:1026D000A5FB00BD1CB5232001214004FEF7FCF83A
:1026E00001216A46117100209071D0710320507150
:1026F000009169460148FDF7EAFF1CBD001400483F
:10270000F0B591B0FFF7E2FF0F9005460B900A90ED
:1027100000208100574B0CAA5B58401C53500328E3
:10272000F7DB8CE00A980A95281A099001D101205C
:10273000099006226946432000F09EF9009801990D
:102740000002401800B2FDF7F1FD079002980399CE
:102750000002401800B2FDF7E9FD069004980599C3
:102760000002401800B2FDF7E1FD434E08903078BA
:1027700000F0B8FA20464149FDF7D2FC40488142BA
:1027800001D9012100E000213068C207D20F914237
:1027900001D0401C3060384801780907090F002635
:1027A0000160B4000CAF06A839590059FDF7F4FDDB
:1027B00004D238593349FDF7D9FC385106A83959A4
:1027C0000059FDF7DFFD04D238592E49FDF71FFDF2
:1027D0003851E0192C4900F0EDFA38592B494000E6
:1027E0004008FDF7C3FC014606AF385940004008D9
:1027F000FDF7D2FD06D2FFF769FF0B901E480121BD
:1028000001600BE00998FDF79CFD214900F032FBC7
:10281000024618483959201800F0F0FA761C032EA9
:10282000BFDB7D24E400FFF751FF401BA04203D231
:102830000A20FFF762FCF6E7FFF748FF05460B9812
:102840002C1A1448844205D20F981349281A88423A
:1028500000D267E70B98291A0E48814207D2002060
:10286000044A01468300401CD1500328FADB11B012
:10287000F0BD0000C8030020BC00002024F40000CC
:10288000127A0000CDCCCC3D000048440000C84284
:102890000024F44880841E00C0E1E40010B58AB032
:1028A00002206946087101208871C8710320400226
:1028B0000924E40600902046FDF709FF04220921BF
:1028C0002046FDF73CFF04220A212046FDF737FF92
:1028D00001214805FEF70CF801210846FEF714F81F
:1028E00001218805FEF7C4F80121C805FEF7C0F8EC
:1028F0001020FEF7B1F80B48029000200F21049140
:102900000390AB21084C059007900691089002A90E
:102910002046FDF747FF01212046FDF727FF0AB0BB
:1029200010BD00001808700000540040F8B50F46B4
:102930001646012100F03AF8092080020123009098
:10294000F2B25B06D0211248FDF764FF114D002062
:10295000287018E0002408E0641C600B05D00E49C4
:102960000868401C08600020F8BD04210848FDF7F5
:1029700011FF0028F0D00648FDF746FF29788A00AD
:10298000B850491C29702878B042E3DB0120F8BD1B
:1029900000540040CC010020BC01002008B50122F9
:1029A0006946FFF7C3FF009808BD0000F3B581B08A
:1029B0000F4600241A4D1B4E02E0641C600B22D10E
:1029C0000121C9033046FDF7E5FE0128F5D00120BD
:1029D00040030090FAB20023D0213046FDF71AFFE1
:1029E00002E0641C600B0ED102213046FDF7D2FEDE
:1029F0000028F6D00198C1B23046FDF708FF07E085
:102A0000641C600B04D02868401C28600020FEBDB8
:102A100001213046FDF7BEFE0028F1D00120FEBDA9
:102A2000BC0100200054004070B50D460024022176
:102A3000FFF7BCFFE9B20C4D2846FDF7E8FE07E0C2
:102A4000641C600B04D009490868401C086070BD14
:102A500040212846FDF79EFE0028F1D0012128469E
:102A6000FDF78EFE70BD000000540040BC01002048
:102A700010B5FFF713FF10BD10B5FFF757FF10BDDE
:102A800010B5FFF78BFF10BD10B5FFF7CDFF10BDE0
:102A9000F0B56E4C6E4E87B021683068FDF7B7FB1D
:102AA000306061687068FDF7B2FB7060A168B06863
:102AB000FDF7ADFB00240A27FF43B060A500705965
:102AC0003946FDF727FC641C7051032CF6DB614886
:102AD0000024006804AF00905F48A50040590099A9
:102AE000FDF79DFB641C7851032CF5DB5B4D0498CE
:102AF0002C682146FDF793FBA968FDF78CFB01903C
:102B000001990498FDF78BFB2146FDF72FFB074643
:102B100001990598FDF783FB6968FDF727FB0446DB
:102B200021460598FDF77BFB0199FDF774FBA86032
:102B300021460698FDF773FB3946FDF76CFB2860CC
:102B4000069A01461046FDF76AFB2146FDF70EFB8B
:102B5000686043487F270068FF050028414C3C48D7
:102B600026D0FFF701F840494118A1425CD2014646
:102B700000243846FDF790FB0090A700F159FDF7BF
:102B80004EFB641CF051032C01DA0098F5E7314844
:102B90003649006800F080F907460024A00031584B
:102BA00040193A4600F02AF9641C032CF6DB3BE09E
:102BB000FEF7DAFF2C494118A14235D27F22D20517
:102BC000014600241046FDF767FB0090A700F1596D
:102BD000FDF725FB641CF051032C01DA0098F5E7A2
:102BE0001C483F210906006800F056F907460024FA
:102BF000A000315840193A4600F000F9641C032C3B
:102C0000F6DB1648FEF7B0FF01467F200024C00522
:102C1000FDF742FB0746A6003846A959FDF7FFFA23
:102C2000641CA851032CF6DB1148C07B00280AD095
:102C3000A9682868FEF730FF0E4C2060A968686814
:102C4000FEF72AFF606007B0F0BD0000BC03002063
:102C5000A40300203C000020B0030020D40000208A
:102C60000000002032337300CCCCCCC00000A04167
:102C7000F0010020E0030020F8B500250D4F00F022
:102C800049FF0024A6000A21B859C943FDF742FBB9
:102C900001460948094A301800F0B0F8641C032CBA
:102CA000F0DB7D20C000FFF728FA6D1C642DE6DB09
:102CB000F8BD0000A4030020D40000209A99593FD9
:102CC00010B50120FEF76AFF10BD0EB513226B464A
:102CD0001A8000225A8001911A819A726946FEF781
:102CE00003F80EBD70B50646FFF7F0FC194C2169DC
:102CF0002061451A3046FDF724FB1749FDF78FFA8E
:102D000006460121204689070C3000F053F828467A
:102D1000FDF717FB054630466168FDF778FA29464E
:102D2000FDF77DFA0D49FDF77AFAE168FDF71EFA25
:102D30000B49E060884205DDFF2000F031F87F207C
:102D4000C00503E0FF2000F021F8002060600020B3
:102D500070BD0000A80000208988883D6F12833A6A
:102D600048E1FA3E70B50D460446FFF7AFFC214638
:102D7000FDF7D6F96C432009814203D90F2000F0FA
:102D80000FF870BD0F2000F001F870BD10B5C0073E
:102D900003D001210148FDF7E2FC10BD00140048FA
:102DA00010B5C00703D001210148FDF7DAFC10BDC2
:102DB0000014004870B504460120C0070D46454088
:102DC0000E462068FDF7E8FA00D226602846216802
:102DD000FDF7E2FA00D2256070BD70B50D460446DD
:102DE000164600681146FDF7D7FA00D2266029463C
:102DF0002068FDF7C7FA00D2256070BD70B50546A2
:102E00000C467F2016461146C005FDF700FA214604
:102E1000FDF705FA044631462868FDF700FA214619
:102E2000FDF7A4F9286070BDF3B5104E104F8C006B
:102E300083B031593869FDF7F2F9019030460C380A
:102E40000559F8682946FDF7EAF900907969039871
:102E5000FDF7E5F90099FDF789F90199FDF7D7F933
:102E6000314635510C39085105B0F0BD1805002028
:102E70003801002010B5FDF70FFA7F24E405214644
:102E8000FDF7C9F9A04201DD204610BD0121C907A7
:102E90008842FAD9002010BD10B5FDF7C0F97F2493
:102EA000E4052146FDF7B7F9A04201DD204610BD3B
:102EB0000121C9078842FAD9002010BD70B50C0065
:102EC000054601D1FEF72CF80549A0004418054835
:102ED000294602682046FFF791FF206870BD000078
:102EE000EC030020E000002070B50C00054601D185
:102EF000FDF7F2FF0549A00044180548294642683D
:102F00002046FFF77BFF206870BD0000F80300201B
:102F1000E00000200EB57D20C000FFF7EEF8FEF7C0
:102F20007FFFFFF7D7FBFF20FFF73AFF00F06AFEB5
:102F300000F05EFFE348FFF7E0F8FFF799FD00F0CF
:102F4000B7FC0021032000F02DFDDF4C01202146BD
:102F500000F028FD2146022000F024FD214600203B
:102F600000F020FD00F0AAFD00F098FD002837D009
:102F7000FEF77AF8D549012088730871FFF752F9F6
:102F8000FFF758F900F03FFDD14E00240020FEF776
:102F9000DDF8B168FDF743F905460120FEF7D6F8E4
:102FA0000146CC4FCA483A460830FFF727FF3A4659
:102FB0002946C748FFF722FFC748641C8442E5DB67
:102FC000C64D3068062400902046FDF7AFF907464D
:102FD00001460098FDF760F9A84203DD776104E03F
:102FE000042037E0641E002CEEDC71690098FDF7C8
:102FF00053F9BB49884201DA02202BE0FFF780FB3E
:1030000000F000FDFFF738FEB6480068002801D048
:1030100007201FE0FFF75AFB7063FFF757FBAC4C2C
:103020000546606B281AFDF78CF92063002802DC46
:103030007F20C0052063AC49FDF7F1F8AB49206360
:10304000884201DD062005E0A64865630068142873
:1030500002DD0820FFF75CF800F05CFDFEF7E4FEFF
:10306000FFF716FD0020FEF771F8994CA168FDF7F7
:10307000D6F806460120FEF769F80146954F20462E
:103080003A460830FFF7BAFE99483A4601682046AA
:103090000C30FFF7B3FE97496069FDF7C0F8019067
:1030A000954A01A82168FFF7A9FE3A463146204615
:1030B000FFF7A4FE0121C9430198FDF72BF906464D
:1030C0008E492068FDF7ABF83146FDF7A0F8009077
:1030D000E4688B48844257DD7D4F786A0646FDF7E9
:1030E00025F98749FDF79BF82146FDF798F80099E7
:1030F000FDF73CF87549B400703108510646F86A8E
:10310000002808D0002030398200401C8E500C2846
:10311000FADB0020F8626D487A4910300059FDF75B
:103120007EF86A4F0290403739593046FDF76FF804
:103130000299FDF71BF839463E51303908510146D6
:10314000FDF76DF83E4601466036A0196E4AFFF75E
:1031500055FE5F485E49406A401C48620C2813DBFC
:1031600000215B480024416231680291A700F059B8
:103170000299FDF707F904D2F05902905448611CF6
:103180008162641C0C2CF1DB514F3869002800D09F
:103190005B485E49FCF7EAFF0646B86AFDF7C6F8E9
:1031A000574C2146FDF73BF8F968FDF738F80099D0
:1031B000FCF7DCFF3146FDF7E5F803D354493868E6
:1031C000884201DA012000E000203861B86AFDF78A
:1031D000ADF82146FDF723F8F968FDF720F80099CE
:1031E000FCF7C4FF78604B480068002801D0FFF767
:1031F00063F93869002801D0082108E046480068D2
:10320000002806D045480068002804D00F21444813
:103210001EE00C211BE02D48C07B002807D00026B3
:10322000B869002817D0386A002802D004E00126C7
:10323000F6E7FFF74BFA3862FFF748FA396A411AA6
:103240003748814202D90020B861386208211D4800
:10325000FFF788FD2BE0F86900281FD0FFF736FA4A
:103260000446386A002809D13C62002E03D0FF20B2
:10327000FFF78CFD02E0FF20FFF792FD386A211A6C
:103280002748814201D8386A04E0F869401EF86195
:10329000002038622349201A884208D9002E03D022
:1032A000FF20FFF77DFD02E0FF20FFF76FFDFEF737
:1032B000C9FC7D24E400FFF709FA401BA042FAD3C1
:1032C000ABE60000A08601009A99993DF00100202C
:1032D0000C000020492E7F3F88130000CDCC6C40AD
:1032E00033335340BC010020BD3786350AD7A33C99
:1032F000080000206666864029EA7F3F0000A03F64
:10330000CDCCCC3D42F27C3F67B17F3F00006040B6
:10331000CDCC2C4000000020840000208000002044
:1033200020A10700E0930400FFB581B007460E46D8
:1033300010460A9DFCF76BFF044628460499FCF7EB
:1033400066FF054631463846FCF761FF2946FCF723
:1033500066FF2146FCF7A0FF0499FCF707FF05B0C4
:10336000F0BD10B5FEF71CFDFEF7F6F9FEF7FAFA10
:1033700010BD000005490868022804D001DA0220C7
:103380000860401C70470020FAE700003801002068
:103390000C494868002804D0012807D002280AD127
:1033A0000BE0084840308860012003E005484C30BD
:1033B000886002204860401C7047024834308860B2
:1033C0000020F7E738010020F0B50546FE48FF4F22
:1033D0000068AC008FB0002803D1FD4800680028C9
:1033E00004D13859FB49FCF71AFF3851032D11DA83
:1033F000F64918310859C207401CD20F0851002A5B
:1034000008D1084648300059294600F0FDFBEF4935
:103410000C310851F048F14900780190EB4B0968F4
:10342000AA00D2180843009200283FD00198002833
:1034300007D0E948C07B002803D0002901D1012D25
:1034400034D0022D32D0E64800260159DF485430EE
:103450000059FCF797FF05D1DC488430005900285B
:1034600000DD0126DE4801210059C9074840D7493F
:1034700054310959FCF786FF07D1D44884300159EB
:103480000120C007814200D90126022D0BDACF4866
:103490000C30015954300059FCF7B9FE4100D148B5
:1034A0004908814201DC002E7ED01BE10126032D5C
:1034B0000FDACD487D210059C905400040088842F7
:1034C00007DACA48CA49005940004008884200DA71
:1034D0000026BE480C30015954300059FCF797FEC5
:1034E0004100C0484908814234DC0198002801D0DD
:1034F000022D2FD0002E02D0022E2BD02FE0B34869
:1035000002216C3006593046FCF704FFAF49783190
:103510000959FCF72BFEB74909590191FCF777FED1
:10352000B549FCF77CFEB5490959FCF778FEB4496A
:103530000968FCF774FE3959FCF718FE3851A348A6
:103540007830065101200199C00741409F486C30F6
:10355000015104E038599F49FCF761FE3851A048F9
:103560000C3001590098FFF725FCA248974E0159ED
:10357000A24803910C38002754360059FCF74FFE3F
:103580003946FCF748FE944F30513979002907D06D
:103590003978002904D18D490959FCF7E7FD3051EC
:1035A00096480C30005900E075E00290002871DD6B
:1035B000FA7B0AA907A8002A06D0904A243A125991
:1035C00002518E4A183A05E0804A603A1259025177
:1035D0007E4A543A12590A5100597F22D20500906E
:1035E000904208590190014604AF104608DAFCF7F2
:1035F0000EFE0D907D4801990059400040080BE0F7
:10360000FCF705FE0D9000990198FCF745FE014678
:103610007648005940004008FCF701FE0D99FCF780
:10362000A5FD38516948243001590398FCF7EFFD96
:103630000299FCF7F4FD7149403989690D91FCF755
:10364000EEFD0E9061483030015930300259019240
:103650001046FCF7DCFD0299FCF7E1FD0099FCF750
:10366000DEFD3959FCF7DBFD0D99FCF7D8FD0E990D
:10367000FCF7CDFD5549019A30310A51534A03995F
:10368000243211512946FFF7CFFB01463059FCF790
:103690006DFD3051EBE04D4802216C30065930464B
:1036A000FCF738FE494978310959FCF75FFD474975
:1036B000843109590191FCF759FD4F49FCF7AFFDE1
:1036C0004E490959FCF7ABFD4D490968FCF7A7FDC8
:1036D0003959FCF74BFD38513C48783006510C38CD
:1036E000019901513E480C3001590098FFF762FBE7
:1036F0004248183007593548394684300059FCF79C
:103700008EFD3E490C3909590091FCF788FD0646AB
:103710007F21C9053846FCF77AFD0099FCF77FFD4B
:10372000344909590391FCF77AFD3146FCF71EFD37
:1037300026490959FCF71AFD2449543108512F48EC
:103740000C300059029000287DDD234807A9C27B78
:103750000AA8002A06D0294A243A12590251274AB7
:10376000183A05E0194A603A12590251174A543A78
:1037700012590A5100597F220190D2050F599042E7
:1037800004AE3946104608DAFCF741FD00901748B0
:1037900039460059400040080BE0FCF738FD009026
:1037A00038460199FCF778FD014610480059400061
:1037B0004008FCF734FD0099FCF7D8FC3051034871
:1037C0003C30015903981DE0000000207C040020DB
:1037D0004C00002048E17A3FF00100200400002066
:1037E000C03E0008CDCCCC3DE8020020F402002011
:1037F0000AD7233CB00300207EAA2A3E780100208D
:103800003C000020FCF703FD0299FCF708FD1D4970
:1038100089690D91FCF703FD07461B4801591830D3
:10382000025900921046FCF7F2FC0299FCF7F7FCF3
:103830000199FCF7F4FC3159FCF7F1FC0D99FCF708
:10384000EEFC394600E012E0FCF7E1FC0E49009A7C
:103850000A510D4A03990C3A11512946FFF7E4FA2F
:10386000094D01460C352859FCF780FC28510748C2
:10387000054D01590C356019FFF79CFA28590FB016
:10388000F0BD000038010020C4040020C03E000844
:1038900010B5044801680448FCF7FEFC0349886140
:1038A00010BD00003C00002017B7513B380100203C
:1038B000FEB5022569460D710320487100248C7104
:1038C000CC7101212846FDF713F8314F31483946B4
:1038D000FFF7FBF901210E023046FDF709F83946E2
:1038E0002D4F3846FFF7F1F92C4860210180012166
:1038F000418084810682846010200924E4060090BF
:1039000069462046FCF7E3FE042211462046FCF7F8
:1039100016FF22493846FDF72FF9402000906946EE
:103920002046FCF7D4FE012206212046FCF707FFC3
:103930001A491848FDF720F9802000906946204672
:10394000FCF7C5FE012207212046FCF7F8FE1349CB
:103950001048FDF74FF9124C694620460095FCF7D8
:10396000B6FE012211462046FCF7E9FE0B49094844
:10397000FDF788F901210748FDF7E8F8012105481E
:10398000FDF7EEF801213846FDF7E0F8FEBD000036
:10399000FFF9000000040040002000402405002042
:1039A0000004004810B50A46044612491046FCF7C8
:1039B00036FCFCF7CDFC002801DA002003E00E49BC
:1039C000884200DD08460D49002C08D0012C09D0A2
:1039D000022C0CD0032C01D180B2486310BD80B200
:1039E000886310BD054980B24031086010BD80B2C7
:1039F0000349F2E700FF7947FFF9000000040040A7
:103A0000002000407047704710B5054C2146FCF778
:103A100006FC2146FCF7AAFB0249FCF700FC10BD9E
:103A2000000048426F12833A1B480168012211438B
:103A3000016001688907FCD54168890889004160F7
:103A400041680907890FFBD10168012212069143E1
:103A5000016001688901FCD441683F231B0499433C
:103A6000416041687B23DB03994341604168072340
:103A7000DB04194341600168114301600168890159
:103A8000FCD5416802221143416041680907890F52
:103A90000229FAD1704700000010024010B57520CD
:103AA000FEF7EEFF682807D0982805D0782803D0C5
:103AB000722801D0002010BD012010BD10B580215A
:103AC0006B20FEF7E1FF1248FEF717FB01216B2088
:103AD000FEF7DAFF7520FEF7D3FF682801D0012436
:103AE00000E000246420FEF708FB18211C20FEF7EC
:103AF000CBFF002C03D005211D20FEF7C5FF1821A8
:103B00001B20FEF7C1FF00211A20FEF7BDFF10BDEC
:103B1000409C0000F0B593B00E2269463B20FEF7B2
:103B2000ABFF009801990002401800B24042FCF738
:103B3000FDFB0746029803990002401800B22E4D83
:103B40004042FCF7F3FB0646049805990002401832
:103B500000B2FCF7EBFB0124E4076740A860C0C596
:103B6000089809990002401800B2FCF7DFFB119099
:103B70000A980B990002401800B2FCF7D7FB10908E
:103B80000C980D990002401800B2FCF7CFFB129080
:103B90001C3529681098FCF73AFB10906968119859
:103BA000FCF735FB1190A9681298FCF730FB1290D6
:103BB000119810996040109008466040119012983A
:103BC0002F466040002410AE183F1290A500705997
:103BD0000A49FCF724FB0A49FCF721FB70512146F6
:103BE000FFF76CF978512146FFF77EF9641C785194
:103BF000032CEBDB13B0F0BDA403002000007A3DE2
:103C000035FA8E3C7047000070B50C4AC9008C181C
:103C1000054660680A492060FCF701FB0646094931
:103C20002846FCF7FCFA3146FCF7A0FA60602268EF
:103C300001461046FCF79AFA70BD0000040400200B
:103C400007715D3FE23B8A3DF0B5614D0446016876
:103C500085B02868FCF796FB04D161686868FCF7BA
:103C600091FB58D02068286060685A4E68603146E1
:103C70006068FCF7D4FA584F3946FCF7D0FA574938
:103C8000FCF774FA054631462068FCF7C8FA394655
:103C9000FCF7C5FA0646FEF767FA4D4C083420607B
:103CA0002846FEF761FA60602846FEF753FA05469B
:103CB0003046FEF74FFA2946FCF7B1FA0646A060F7
:103CC00060680146FCF7ABFA054620680146FCF740
:103CD000A6FA2946FCF74AFA4149054688420FDD13
:103CE00031460846FCF79BFA7F21C905FCF793FA99
:103CF00001462846FCF7D0FAFCF7C4FD054600E073
:103D0000384D20682946FCF78AFA20602946606809
:103D1000FCF785FA60602E4D334E0835A868049094
:103D2000706803900499FCF77AFA04466F68B068EB
:103D300039460290FCF773FA2146FCF768FA2B4CDF
:103D400060600190306800900499FCF768FA2D6873
:103D5000064629460298FCF762FA3146FCF757FA04
:103D6000206001260290F6070098B742394606D92E
:103D7000FCF755FAB0430199FCF74DFA06E0FCF761
:103D80004EFA400040080199FCF7F0F96060039892
:103D9000B542294607D9FCF742FA4000400802998B
:103DA000FCF739FA06E0FCF73AFA400040080299BD
:103DB000FCF7DCF97F25ED05206029460B48FEF76E
:103DC000F9FF2946201DFEF7F5FF05B0F0BD000004
:103DD000C000002000008C4235FA8E3C507756BE61
:103DE0006F12833AF4FD343FD4000020D403002046
:103DF00010B50848064941610749CA690323120200
:103E0000120A44042243CA6100218161036110BD8A
:103E1000FF117A0000E000E004ED00E00A48436989
:103E200080690A494A68904201D2121A01E01B1ABD
:103E30009A18486008681218D008C300D21A0A609D
:103E40008A6810188860704700E000E0C001002018
:103E5000064A10B580008018FCF7F2FB042804D055
:103E6000FCF7E6FB0520FEF753F910BD007C0008C7
:103E70000C0300040003000C0100010001000C020F
:103E800000020002000C0100010003000C0200020D
:103E90000003000C0300030003000C0400040004F2
:103EA000000C0400030004000C0400030003000CD9
:103EB0000400030002000C040003000100000000E5
:103EC0000000803F0000803F0000803FCDCCCC3D13
:103ED000CDCC4C3DCDCCCC3DFC3E000800000020BC
:103EE000E001000054040008803F0008E0010020C9
:103EF00058070000AC0F0008C5D0FFFFF20125668F
:103F000066864043803F491C490C0110A938E944AA
:103F100061033820C11AFF010128A0097B14524116
:103F200085EB4141A9B0390C6904711A40E0A90838
:103F3000DAA008012E136C01880E20D404E33F9010
:103F400051493F04FA513C5C6904798038093F7259
:103F50008A8E3CCDCCCC046DAE47E13D0438086080
:103F6000E5503E9A99990449B44904295C1A7804A9
:103F70001A840401292D01020304043506070809E7
:04000005080000C926
:00000001FF
